{
  "contractName": "DappToken",
  "abi": [
    {
      "inputs": [],
      "payable": false,
      "stateMutability": "nonpayable",
      "type": "constructor"
    },
    {
      "constant": true,
      "inputs": [],
      "name": "totalSupply",
      "outputs": [
        {
          "internalType": "uint256",
          "name": "",
          "type": "uint256"
        }
      ],
      "payable": false,
      "stateMutability": "view",
      "type": "function"
    }
  ],
  "bytecode": "0x6080604052348015600f57600080fd5b50620186a06000556080806100256000396000f3fe6080604052348015600f57600080fd5b506004361060285760003560e01c806318160ddd14602d575b600080fd5b60336045565b60408051918252519081900360200190f35b6000548156fea265627a7a72315820f5f3ff8048d84fba01f4ce55337d73fb1e671b20ba9ee54cd21bf0eb85fd5f2764736f6c63430005100032",
  "source": "pragma solidity ^0.5.0;\n\ncontract DappToken {\n\t// we need a constructor\n\t// we need to be able to set the number of tokens \n\t// we need to read the number of tokens\n\n\tuint256 public totalSupply;\n\n\tconstructor() public {\n\t\ttotalSupply = 100000;\n\t}\n}",
  "sourcePath": "/Users/marc/code/dapps/token_sale/contracts/DappToken.sol",
  "compiler": {
    "name": "solc",
    "version": "0.5.16+commit.9c3226ce.Emscripten.clang"
  },
  "schemaVersion": "3.2.4",
  "updatedAt": "2020-09-13T19:23:15.068Z",
  "networkType": "ethereum",
  "devdoc": {
    "methods": {}
  },
  "userdoc": {
    "methods": {}
  }
}