{
  "contractName": "DappTokenSale",
  "abi": [
    {
      "inputs": [
        {
          "internalType": "contract DappToken",
          "name": "_tokenContract",
          "type": "address"
        },
        {
          "internalType": "uint256",
          "name": "_tokenPrice",
          "type": "uint256"
        }
      ],
      "payable": false,
      "stateMutability": "nonpayable",
      "type": "constructor"
    },
    {
      "anonymous": false,
      "inputs": [
        {
          "indexed": false,
          "internalType": "address",
          "name": "_buyer",
          "type": "address"
        },
        {
          "indexed": false,
          "internalType": "uint256",
          "name": "_amount",
          "type": "uint256"
        }
      ],
      "name": "Sell",
      "type": "event"
    },
    {
      "constant": true,
      "inputs": [],
      "name": "tokenContract",
      "outputs": [
        {
          "internalType": "contract DappToken",
          "name": "",
          "type": "address"
        }
      ],
      "payable": false,
      "stateMutability": "view",
      "type": "function"
    },
    {
      "constant": true,
      "inputs": [],
      "name": "tokenPrice",
      "outputs": [
        {
          "internalType": "uint256",
          "name": "",
          "type": "uint256"
        }
      ],
      "payable": false,
      "stateMutability": "view",
      "type": "function"
    },
    {
      "constant": true,
      "inputs": [],
      "name": "tokenSold",
      "outputs": [
        {
          "internalType": "uint256",
          "name": "",
          "type": "uint256"
        }
      ],
      "payable": false,
      "stateMutability": "view",
      "type": "function"
    },
    {
      "constant": false,
      "inputs": [
        {
          "internalType": "uint256",
          "name": "_numberOfTokens",
          "type": "uint256"
        }
      ],
      "name": "buyTokens",
      "outputs": [],
      "payable": true,
      "stateMutability": "payable",
      "type": "function"
    },
    {
      "constant": false,
      "inputs": [],
      "name": "endSale",
      "outputs": [],
      "payable": false,
      "stateMutability": "nonpayable",
      "type": "function"
    }
  ],
  "bytecode": "0x608060405234801561001057600080fd5b506040516104723803806104728339818101604052604081101561003357600080fd5b508051602090910151600080546001600160a01b03199081163317909155600291909155600180546001600160a01b03909316929091169190911790556103f38061007f6000396000f3fe60806040526004361061004a5760003560e01c80633610724e1461004f578063380d831b1461006e578063519ee19e1461008357806355a373d6146100aa5780637ff9b596146100db575b600080fd5b61006c6004803603602081101561006557600080fd5b50356100f0565b005b34801561007a57600080fd5b5061006c610257565b34801561008f57600080fd5b50610098610379565b60408051918252519081900360200190f35b3480156100b657600080fd5b506100bf61037f565b604080516001600160a01b039092168252519081900360200190f35b3480156100e757600080fd5b5061009861038e565b6100fc81600254610394565b341461010757600080fd5b600154604080516370a0823160e01b8152306004820152905183926001600160a01b0316916370a08231916024808301926020929190829003018186803b15801561015157600080fd5b505afa158015610165573d6000803e3d6000fd5b505050506040513d602081101561017b57600080fd5b5051101561018857600080fd5b6001546040805163a9059cbb60e01b81523360048201526024810184905290516001600160a01b039092169163a9059cbb916044808201926020929091908290030181600087803b1580156101dc57600080fd5b505af11580156101f0573d6000803e3d6000fd5b505050506040513d602081101561020657600080fd5b505161021157600080fd5b6003805482019055604080513381526020810183905281517f5e5e995ce3133561afceaa51a9a154d5db228cd7525d34df5185582c18d3df09929181900390910190a150565b6000546001600160a01b0316331461026e57600080fd5b600154600054604080516370a0823160e01b815230600482015290516001600160a01b039384169363a9059cbb93169184916370a0823191602480820192602092909190829003018186803b1580156102c657600080fd5b505afa1580156102da573d6000803e3d6000fd5b505050506040513d60208110156102f057600080fd5b5051604080516001600160e01b031960e086901b1681526001600160a01b03909316600484015260248301919091525160448083019260209291908290030181600087803b15801561034157600080fd5b505af1158015610355573d6000803e3d6000fd5b505050506040513d602081101561036b57600080fd5b505161037657600080fd5b33ff5b60035481565b6001546001600160a01b031681565b60025481565b60008115806103af575050808202828282816103ac57fe5b04145b6103b857600080fd5b9291505056fea265627a7a72315820c65bb725509fa36659deaa0ae000c12f2b86a1cbbefa6fd631c9be98f64ee17b64736f6c63430005100032",
  "source": "pragma solidity ^0.5.0;\n\n\nimport \"./DappToken.sol\";\n\n\ncontract DappTokenSale {\n\taddress admin; \n\tDappToken public tokenContract; \t// contract datatype\n\tuint256 public tokenPrice;\n\tuint256 public tokenSold;\n\n\tevent Sell(address _buyer, uint256 _amount);\t\n\n  constructor(DappToken _tokenContract, uint256 _tokenPrice) public {\n  \tadmin         = msg.sender; \t\t// assign an admin\n  \ttokenPrice \t  = _tokenPrice;\t\t// set a token price in wei\n  \ttokenContract = _tokenContract;\t\t\n  }\n\n  // multiply function to make safe calculation\n  // pure -> it's not written in the blockchain\n  function multiply(uint x, uint y) internal pure returns(uint z){\n  \trequire (y==0 || (z= x*y)/y ==x);\n  }\n  \n\n  function buyTokens (uint256 _numberOfTokens) public payable {\n  \trequire (msg.value == multiply(_numberOfTokens, tokenPrice));            // require value is equal tokens (price)\n  \trequire (tokenContract.balanceOf(address(this)) >= _numberOfTokens);\t   // require contract has enough token\n  \trequire (tokenContract.transfer(msg.sender, _numberOfTokens));           // require transfer is successful\n\n  \ttokenSold += _numberOfTokens;        \t\t// Keep track of token sold\n  \temit Sell(msg.sender, _numberOfTokens); // triger sell event  \t\n  }\n\n  function endSale() public{\n  \trequire (msg.sender == admin);\t\t\t// require admin to end sale\n  \trequire (tokenContract.transfer(admin, tokenContract.balanceOf(address(this)))); // send back remaining token to admin\n  \tselfdestruct(msg.sender);   \t\t\t\t// destroy contract when ending sale\n  }\n  \n\n\n}\n\n",
  "sourcePath": "/Users/marc/code/dapps/token_sale/contracts/DappTokenSale.sol",
  "compiler": {
    "name": "solc",
    "version": "0.5.16+commit.9c3226ce.Emscripten.clang"
  },
  "schemaVersion": "3.2.4",
  "updatedAt": "2020-09-22T19:44:14.133Z",
  "networkType": "ethereum",
  "devdoc": {
    "methods": {}
  },
  "userdoc": {
    "methods": {}
  }
}