{
  "contractName": "DappToken",
  "abi": [
    {
      "inputs": [
        {
          "internalType": "uint256",
          "name": "_totalSupply",
          "type": "uint256"
        }
      ],
      "payable": false,
      "stateMutability": "nonpayable",
      "type": "constructor"
    },
    {
      "anonymous": false,
      "inputs": [
        {
          "indexed": true,
          "internalType": "address",
          "name": "_owner",
          "type": "address"
        },
        {
          "indexed": true,
          "internalType": "address",
          "name": "_spender",
          "type": "address"
        },
        {
          "indexed": false,
          "internalType": "uint256",
          "name": "_value",
          "type": "uint256"
        }
      ],
      "name": "Approval",
      "type": "event"
    },
    {
      "anonymous": false,
      "inputs": [
        {
          "indexed": true,
          "internalType": "address",
          "name": "_from",
          "type": "address"
        },
        {
          "indexed": true,
          "internalType": "address",
          "name": "_to",
          "type": "address"
        },
        {
          "indexed": false,
          "internalType": "uint256",
          "name": "_value",
          "type": "uint256"
        }
      ],
      "name": "Transfer",
      "type": "event"
    },
    {
      "constant": true,
      "inputs": [
        {
          "internalType": "address",
          "name": "",
          "type": "address"
        },
        {
          "internalType": "address",
          "name": "",
          "type": "address"
        }
      ],
      "name": "allowance",
      "outputs": [
        {
          "internalType": "uint256",
          "name": "",
          "type": "uint256"
        }
      ],
      "payable": false,
      "stateMutability": "view",
      "type": "function"
    },
    {
      "constant": true,
      "inputs": [
        {
          "internalType": "address",
          "name": "",
          "type": "address"
        }
      ],
      "name": "balanceOf",
      "outputs": [
        {
          "internalType": "uint256",
          "name": "",
          "type": "uint256"
        }
      ],
      "payable": false,
      "stateMutability": "view",
      "type": "function"
    },
    {
      "constant": true,
      "inputs": [],
      "name": "name",
      "outputs": [
        {
          "internalType": "string",
          "name": "",
          "type": "string"
        }
      ],
      "payable": false,
      "stateMutability": "view",
      "type": "function"
    },
    {
      "constant": true,
      "inputs": [],
      "name": "symbol",
      "outputs": [
        {
          "internalType": "string",
          "name": "",
          "type": "string"
        }
      ],
      "payable": false,
      "stateMutability": "view",
      "type": "function"
    },
    {
      "constant": true,
      "inputs": [],
      "name": "totalSupply",
      "outputs": [
        {
          "internalType": "uint256",
          "name": "",
          "type": "uint256"
        }
      ],
      "payable": false,
      "stateMutability": "view",
      "type": "function"
    },
    {
      "constant": false,
      "inputs": [
        {
          "internalType": "address",
          "name": "_to",
          "type": "address"
        },
        {
          "internalType": "uint256",
          "name": "_value",
          "type": "uint256"
        }
      ],
      "name": "transfer",
      "outputs": [
        {
          "internalType": "bool",
          "name": "success",
          "type": "bool"
        }
      ],
      "payable": false,
      "stateMutability": "nonpayable",
      "type": "function"
    },
    {
      "constant": false,
      "inputs": [
        {
          "internalType": "address",
          "name": "_spender",
          "type": "address"
        },
        {
          "internalType": "uint256",
          "name": "_value",
          "type": "uint256"
        }
      ],
      "name": "approve",
      "outputs": [
        {
          "internalType": "bool",
          "name": "success",
          "type": "bool"
        }
      ],
      "payable": false,
      "stateMutability": "nonpayable",
      "type": "function"
    },
    {
      "constant": false,
      "inputs": [
        {
          "internalType": "address",
          "name": "_from",
          "type": "address"
        },
        {
          "internalType": "address",
          "name": "_to",
          "type": "address"
        },
        {
          "internalType": "uint256",
          "name": "_value",
          "type": "uint256"
        }
      ],
      "name": "transferfrom",
      "outputs": [
        {
          "internalType": "bool",
          "name": "success",
          "type": "bool"
        }
      ],
      "payable": false,
      "stateMutability": "nonpayable",
      "type": "function"
    }
  ],
  "bytecode": "0x60c0604052600a6080819052692230b838102a37b5b2b760b11b60a090815261002b91600091906100a6565b50604080518082019091526004808252630444150560e41b6020909201918252610057916001916100a6565b5034801561006457600080fd5b506040516106933803806106938339818101604052602081101561008757600080fd5b5051600255336000908152600360205260409020620f42409055610141565b828054600181600116156101000203166002900490600052602060002090601f016020900481019282601f106100e757805160ff1916838001178555610114565b82800160010185558215610114579182015b828111156101145782518255916020019190600101906100f9565b50610120929150610124565b5090565b61013e91905b80821115610120576000815560010161012a565b90565b610543806101506000396000f3fe608060405234801561001057600080fd5b50600436106100885760003560e01c806370a082311161005b57806370a082311461019a57806395d89b41146101c0578063a9059cbb146101c8578063dd62ed3e146101f457610088565b806306fdde031461008d578063095ea7b31461010a57806318160ddd1461014a57806363b0545f14610164575b600080fd5b610095610222565b6040805160208082528351818301528351919283929083019185019080838360005b838110156100cf5781810151838201526020016100b7565b50505050905090810190601f1680156100fc5780820380516001836020036101000a031916815260200191505b509250505060405180910390f35b6101366004803603604081101561012057600080fd5b506001600160a01b0381351690602001356102b0565b604080519115158252519081900360200190f35b610152610316565b60408051918252519081900360200190f35b6101366004803603606081101561017a57600080fd5b506001600160a01b0381358116916020810135909116906040013561031c565b610152600480360360208110156101b057600080fd5b50356001600160a01b03166103fb565b61009561040d565b610136600480360360408110156101de57600080fd5b506001600160a01b038135169060200135610467565b6101526004803603604081101561020a57600080fd5b506001600160a01b03813581169160200135166104f1565b6000805460408051602060026001851615610100026000190190941693909304601f810184900484028201840190925281815292918301828280156102a85780601f1061027d576101008083540402835291602001916102a8565b820191906000526020600020905b81548152906001019060200180831161028b57829003601f168201915b505050505081565b3360008181526004602090815260408083206001600160a01b038716808552908352818420869055815186815291519394909390927f8c5be1e5ebec7d5bd14f71427d1e84f3dd0314c0f7b2291e5b200ac8c7c3b925928290030190a350600192915050565b60025481565b6001600160a01b03831660009081526003602052604081205482111561034157600080fd5b6001600160a01b038416600090815260046020908152604080832033845290915290205482111561037157600080fd5b6001600160a01b0380851660008181526003602090815260408083208054889003905593871680835284832080548801905583835260048252848320338452825291849020805487900390558351868152935191937fddf252ad1be2c89b69c2b068fc378daa952ba7f163c4a11628f55a4df523b3ef929081900390910190a35060019392505050565b60036020526000908152604090205481565b60018054604080516020600284861615610100026000190190941693909304601f810184900484028201840190925281815292918301828280156102a85780601f1061027d576101008083540402835291602001916102a8565b3360009081526003602052604081205482111561048357600080fd5b336000818152600360209081526040808320805487900390556001600160a01b03871680845292819020805487019055805186815290519293927fddf252ad1be2c89b69c2b068fc378daa952ba7f163c4a11628f55a4df523b3ef929181900390910190a350600192915050565b60046020908152600092835260408084209091529082529020548156fea265627a7a72315820d6a20fe9e7b161fd8fbc5793107b5434bcd4f0d77aa914f09eb4436bc94a925464736f6c63430005100032",
  "source": "pragma solidity ^0.5.0;\n// https://www.youtube.com/watch?time_continue=4&v=XdKv5uwEk5A&feature=emb_logo&ab_channel=DappUniversity\n\ncontract DappToken {\n\t// We set the global variables needed for our smart contract:\n\t// • name of the token and symbol of the crypto\n\t// • the supply amount of tokens\n\t// • address and amount of tokens\n\tstring  public name   = 'Dapp Token';     // token name on the app\n\tstring  public symbol = 'DAPP';           // token name = currency name\n\t// string  public standard = 'DAPP v1';   // token name = currency name\n\tuint256 public totalSupply;\n\n\n\tevent Transfer(address indexed _from, address indexed _to, uint256 _value);\n\tevent Approval(address indexed _owner, address indexed _spender, uint256 _value);\n\n\tmapping(address => uint256) public balanceOf;\n\tmapping(address => mapping (address => uint256)) public allowance; // account A, approves Account B with the Vakue X\n\n\n\t// I.  Initializer function:\n\tconstructor(uint256 _totalSupply) public {\n\t\t// • we set the initial supply of availoable token for our app\n\t\t// • we allocate all the tokens to the admin (the one that called the function)\n\t\ttotalSupply = _totalSupply;\n\t\tbalanceOf[msg.sender] = 1000000;\n\t}\n\n\n\t// II.  Transfer function\n\tfunction transfer(address _to, uint256 _value) public returns(bool success){\n\t\t// exception if not enough tokens\n\t\trequire(balanceOf[msg.sender] >= _value); // require --> if true, continue, if not stop\t\n\t\t// Now we need to transfer the balance\n\t\tbalanceOf[msg.sender] -= _value;\n\t\tbalanceOf[_to] += _value;\n\n\t\temit Transfer(msg.sender, _to, _value);\t\t  // need a transfer event to be ERC20\n\t\treturn true;                              // need to return a boolean to be ERC20\n\t}\n\n\n\t//III.  Delegated Transfer function\n\t// 2 steps process:\n\t// • allow us to do the transfer (with approve function)\n\t// • do the transfer, allowance (with transferfrom function)\n\tfunction approve (address _spender, uint256 _value) public returns(bool success){\n\t\tallowance[msg.sender][_spender] = _value;\n\t\temit Approval(msg.sender, _spender, _value);\n\t\treturn true;\n\t}\n\t\n\tfunction transferfrom (address _from, address _to, uint256 _value) public returns(bool success){\n\t\trequire (_value  <= balanceOf[_from] );              // enough token to do the transfer\n\t\trequire (_value  <= allowance[_from][msg.sender]);   // require that amount of msg.sender is big enough to do a transfer on behalf of _from account\n\t\tbalanceOf[_from] -= _value;\t\t\t\t\t\t\t // updating the balance of accounts\n\t\tbalanceOf[_to]   += _value;\n\n\t\tallowance[_from][msg.sender] -= _value;              // keep track of the allowances\n\t\t\n\t\temit Transfer(_from, _to, _value);\n\t\treturn true;\n\t}\n}",
  "sourcePath": "/Users/marc/code/dapps/token_sale/contracts/DappToken.sol",
  "compiler": {
    "name": "solc",
    "version": "0.5.16+commit.9c3226ce.Emscripten.clang"
  },
  "schemaVersion": "3.2.4",
  "updatedAt": "2020-09-19T16:45:05.128Z",
  "networkType": "ethereum",
  "devdoc": {
    "methods": {}
  },
  "userdoc": {
    "methods": {}
  }
}